{
  "_format": "hh-sol-artifact-1",
  "contractName": "ArtheosYushaERC721R",
  "sourceName": "contracts/ArtheosYushaERC721R.sol",
  "abi": [
    {
      "inputs": [
        {
          "internalType": "bytes32",
          "name": "_merkleRootWL1",
          "type": "bytes32"
        },
        {
          "internalType": "bytes32",
          "name": "_merkleRootWL2",
          "type": "bytes32"
        },
        {
          "internalType": "bytes32",
          "name": "_merkleRootWL3",
          "type": "bytes32"
        },
        {
          "internalType": "string",
          "name": "_baseURI",
          "type": "string"
        }
      ],
      "stateMutability": "nonpayable",
      "type": "constructor"
    },
    {
      "anonymous": false,
      "inputs": [
        {
          "indexed": true,
          "internalType": "address",
          "name": "owner",
          "type": "address"
        },
        {
          "indexed": true,
          "internalType": "address",
          "name": "approved",
          "type": "address"
        },
        {
          "indexed": true,
          "internalType": "uint256",
          "name": "tokenId",
          "type": "uint256"
        }
      ],
      "name": "Approval",
      "type": "event"
    },
    {
      "anonymous": false,
      "inputs": [
        {
          "indexed": true,
          "internalType": "address",
          "name": "owner",
          "type": "address"
        },
        {
          "indexed": true,
          "internalType": "address",
          "name": "operator",
          "type": "address"
        },
        {
          "indexed": false,
          "internalType": "bool",
          "name": "approved",
          "type": "bool"
        }
      ],
      "name": "ApprovalForAll",
      "type": "event"
    },
    {
      "anonymous": false,
      "inputs": [
        {
          "indexed": true,
          "internalType": "address",
          "name": "previousOwner",
          "type": "address"
        },
        {
          "indexed": true,
          "internalType": "address",
          "name": "newOwner",
          "type": "address"
        }
      ],
      "name": "OwnershipTransferred",
      "type": "event"
    },
    {
      "anonymous": false,
      "inputs": [
        {
          "indexed": true,
          "internalType": "address",
          "name": "from",
          "type": "address"
        },
        {
          "indexed": true,
          "internalType": "address",
          "name": "to",
          "type": "address"
        },
        {
          "indexed": true,
          "internalType": "uint256",
          "name": "tokenId",
          "type": "uint256"
        }
      ],
      "name": "Transfer",
      "type": "event"
    },
    {
      "inputs": [
        {
          "internalType": "address",
          "name": "to",
          "type": "address"
        },
        {
          "internalType": "uint256",
          "name": "tokenId",
          "type": "uint256"
        }
      ],
      "name": "approve",
      "outputs": [],
      "stateMutability": "nonpayable",
      "type": "function"
    },
    {
      "inputs": [
        {
          "internalType": "address",
          "name": "owner",
          "type": "address"
        }
      ],
      "name": "balanceOf",
      "outputs": [
        {
          "internalType": "uint256",
          "name": "",
          "type": "uint256"
        }
      ],
      "stateMutability": "view",
      "type": "function"
    },
    {
      "inputs": [],
      "name": "baseURI",
      "outputs": [
        {
          "internalType": "string",
          "name": "",
          "type": "string"
        }
      ],
      "stateMutability": "view",
      "type": "function"
    },
    {
      "inputs": [
        {
          "internalType": "uint256",
          "name": "tokenId",
          "type": "uint256"
        }
      ],
      "name": "getApproved",
      "outputs": [
        {
          "internalType": "address",
          "name": "",
          "type": "address"
        }
      ],
      "stateMutability": "view",
      "type": "function"
    },
    {
      "inputs": [
        {
          "internalType": "address",
          "name": "_to",
          "type": "address"
        },
        {
          "internalType": "uint256",
          "name": "_quantity",
          "type": "uint256"
        },
        {
          "internalType": "uint256",
          "name": "_wave",
          "type": "uint256"
        }
      ],
      "name": "gift",
      "outputs": [],
      "stateMutability": "nonpayable",
      "type": "function"
    },
    {
      "inputs": [
        {
          "internalType": "address",
          "name": "owner",
          "type": "address"
        },
        {
          "internalType": "address",
          "name": "operator",
          "type": "address"
        }
      ],
      "name": "isApprovedForAll",
      "outputs": [
        {
          "internalType": "bool",
          "name": "",
          "type": "bool"
        }
      ],
      "stateMutability": "view",
      "type": "function"
    },
    {
      "inputs": [],
      "name": "isPaused",
      "outputs": [
        {
          "internalType": "bool",
          "name": "",
          "type": "bool"
        }
      ],
      "stateMutability": "view",
      "type": "function"
    },
    {
      "inputs": [],
      "name": "maxSupply",
      "outputs": [
        {
          "internalType": "uint256",
          "name": "",
          "type": "uint256"
        }
      ],
      "stateMutability": "view",
      "type": "function"
    },
    {
      "inputs": [],
      "name": "merkleRoot1",
      "outputs": [
        {
          "internalType": "bytes32",
          "name": "",
          "type": "bytes32"
        }
      ],
      "stateMutability": "view",
      "type": "function"
    },
    {
      "inputs": [],
      "name": "merkleRoot2",
      "outputs": [
        {
          "internalType": "bytes32",
          "name": "",
          "type": "bytes32"
        }
      ],
      "stateMutability": "view",
      "type": "function"
    },
    {
      "inputs": [],
      "name": "merkleRoot3",
      "outputs": [
        {
          "internalType": "bytes32",
          "name": "",
          "type": "bytes32"
        }
      ],
      "stateMutability": "view",
      "type": "function"
    },
    {
      "inputs": [],
      "name": "name",
      "outputs": [
        {
          "internalType": "string",
          "name": "",
          "type": "string"
        }
      ],
      "stateMutability": "view",
      "type": "function"
    },
    {
      "inputs": [],
      "name": "owner",
      "outputs": [
        {
          "internalType": "address",
          "name": "",
          "type": "address"
        }
      ],
      "stateMutability": "view",
      "type": "function"
    },
    {
      "inputs": [
        {
          "internalType": "uint256",
          "name": "tokenId",
          "type": "uint256"
        }
      ],
      "name": "ownerOf",
      "outputs": [
        {
          "internalType": "address",
          "name": "",
          "type": "address"
        }
      ],
      "stateMutability": "view",
      "type": "function"
    },
    {
      "inputs": [
        {
          "internalType": "uint256",
          "name": "_quantity",
          "type": "uint256"
        },
        {
          "internalType": "uint256",
          "name": "_wave",
          "type": "uint256"
        }
      ],
      "name": "publicMint",
      "outputs": [],
      "stateMutability": "payable",
      "type": "function"
    },
    {
      "inputs": [],
      "name": "publicSalePrice",
      "outputs": [
        {
          "internalType": "uint256",
          "name": "",
          "type": "uint256"
        }
      ],
      "stateMutability": "view",
      "type": "function"
    },
    {
      "inputs": [],
      "name": "renounceOwnership",
      "outputs": [],
      "stateMutability": "nonpayable",
      "type": "function"
    },
    {
      "inputs": [],
      "name": "resetWLsForNextWave",
      "outputs": [],
      "stateMutability": "nonpayable",
      "type": "function"
    },
    {
      "inputs": [
        {
          "internalType": "uint256",
          "name": "_whitelistNumber",
          "type": "uint256"
        }
      ],
      "name": "resetWhitelist",
      "outputs": [],
      "stateMutability": "nonpayable",
      "type": "function"
    },
    {
      "inputs": [
        {
          "internalType": "address",
          "name": "from",
          "type": "address"
        },
        {
          "internalType": "address",
          "name": "to",
          "type": "address"
        },
        {
          "internalType": "uint256",
          "name": "tokenId",
          "type": "uint256"
        }
      ],
      "name": "safeTransferFrom",
      "outputs": [],
      "stateMutability": "nonpayable",
      "type": "function"
    },
    {
      "inputs": [
        {
          "internalType": "address",
          "name": "from",
          "type": "address"
        },
        {
          "internalType": "address",
          "name": "to",
          "type": "address"
        },
        {
          "internalType": "uint256",
          "name": "tokenId",
          "type": "uint256"
        },
        {
          "internalType": "bytes",
          "name": "_data",
          "type": "bytes"
        }
      ],
      "name": "safeTransferFrom",
      "outputs": [],
      "stateMutability": "nonpayable",
      "type": "function"
    },
    {
      "inputs": [],
      "name": "sellingStep",
      "outputs": [
        {
          "internalType": "enum ArtheosYushaERC721R.Step",
          "name": "",
          "type": "uint8"
        }
      ],
      "stateMutability": "view",
      "type": "function"
    },
    {
      "inputs": [
        {
          "internalType": "address",
          "name": "operator",
          "type": "address"
        },
        {
          "internalType": "bool",
          "name": "approved",
          "type": "bool"
        }
      ],
      "name": "setApprovalForAll",
      "outputs": [],
      "stateMutability": "nonpayable",
      "type": "function"
    },
    {
      "inputs": [
        {
          "internalType": "string",
          "name": "_baseURI",
          "type": "string"
        }
      ],
      "name": "setBaseURI",
      "outputs": [],
      "stateMutability": "nonpayable",
      "type": "function"
    },
    {
      "inputs": [
        {
          "internalType": "bytes32",
          "name": "_merkleRoot",
          "type": "bytes32"
        },
        {
          "internalType": "uint256",
          "name": "_whitelist",
          "type": "uint256"
        }
      ],
      "name": "setMerkleRoot",
      "outputs": [],
      "stateMutability": "nonpayable",
      "type": "function"
    },
    {
      "inputs": [
        {
          "internalType": "bool",
          "name": "_isPaused",
          "type": "bool"
        }
      ],
      "name": "setPaused",
      "outputs": [],
      "stateMutability": "nonpayable",
      "type": "function"
    },
    {
      "inputs": [
        {
          "internalType": "uint256",
          "name": "_publicSalePrice",
          "type": "uint256"
        }
      ],
      "name": "setPublicSalePrice",
      "outputs": [],
      "stateMutability": "nonpayable",
      "type": "function"
    },
    {
      "inputs": [
        {
          "internalType": "uint256",
          "name": "_step",
          "type": "uint256"
        }
      ],
      "name": "setStep",
      "outputs": [],
      "stateMutability": "nonpayable",
      "type": "function"
    },
    {
      "inputs": [
        {
          "internalType": "uint256",
          "name": "_stepNumber",
          "type": "uint256"
        },
        {
          "internalType": "uint256",
          "name": "_timestamp",
          "type": "uint256"
        }
      ],
      "name": "setStepTimestamp",
      "outputs": [],
      "stateMutability": "nonpayable",
      "type": "function"
    },
    {
      "inputs": [
        {
          "internalType": "uint256",
          "name": "_wlSalePrice",
          "type": "uint256"
        }
      ],
      "name": "setWl2SalePrice",
      "outputs": [],
      "stateMutability": "nonpayable",
      "type": "function"
    },
    {
      "inputs": [
        {
          "internalType": "uint256",
          "name": "_wlSalePrice",
          "type": "uint256"
        }
      ],
      "name": "setWl3SalePrice",
      "outputs": [],
      "stateMutability": "nonpayable",
      "type": "function"
    },
    {
      "inputs": [
        {
          "internalType": "uint256",
          "name": "",
          "type": "uint256"
        }
      ],
      "name": "stepsTimestamps",
      "outputs": [
        {
          "internalType": "uint256",
          "name": "",
          "type": "uint256"
        }
      ],
      "stateMutability": "view",
      "type": "function"
    },
    {
      "inputs": [
        {
          "internalType": "bytes4",
          "name": "interfaceId",
          "type": "bytes4"
        }
      ],
      "name": "supportsInterface",
      "outputs": [
        {
          "internalType": "bool",
          "name": "",
          "type": "bool"
        }
      ],
      "stateMutability": "view",
      "type": "function"
    },
    {
      "inputs": [],
      "name": "symbol",
      "outputs": [
        {
          "internalType": "string",
          "name": "",
          "type": "string"
        }
      ],
      "stateMutability": "view",
      "type": "function"
    },
    {
      "inputs": [
        {
          "internalType": "uint256",
          "name": "_tokenId",
          "type": "uint256"
        }
      ],
      "name": "tokenURI",
      "outputs": [
        {
          "internalType": "string",
          "name": "",
          "type": "string"
        }
      ],
      "stateMutability": "view",
      "type": "function"
    },
    {
      "inputs": [],
      "name": "totalSupply",
      "outputs": [
        {
          "internalType": "uint256",
          "name": "",
          "type": "uint256"
        }
      ],
      "stateMutability": "view",
      "type": "function"
    },
    {
      "inputs": [
        {
          "internalType": "uint256",
          "name": "_waveId",
          "type": "uint256"
        }
      ],
      "name": "totalSupplyPerWave",
      "outputs": [
        {
          "internalType": "uint256",
          "name": "",
          "type": "uint256"
        }
      ],
      "stateMutability": "view",
      "type": "function"
    },
    {
      "inputs": [
        {
          "internalType": "address",
          "name": "from",
          "type": "address"
        },
        {
          "internalType": "address",
          "name": "to",
          "type": "address"
        },
        {
          "internalType": "uint256",
          "name": "tokenId",
          "type": "uint256"
        }
      ],
      "name": "transferFrom",
      "outputs": [],
      "stateMutability": "nonpayable",
      "type": "function"
    },
    {
      "inputs": [
        {
          "internalType": "address",
          "name": "newOwner",
          "type": "address"
        }
      ],
      "name": "transferOwnership",
      "outputs": [],
      "stateMutability": "nonpayable",
      "type": "function"
    },
    {
      "inputs": [
        {
          "internalType": "uint256",
          "name": "_quantity",
          "type": "uint256"
        },
        {
          "internalType": "bytes32[]",
          "name": "_proof",
          "type": "bytes32[]"
        },
        {
          "internalType": "uint256",
          "name": "_wave",
          "type": "uint256"
        }
      ],
      "name": "whitelistMint",
      "outputs": [],
      "stateMutability": "payable",
      "type": "function"
    },
    {
      "inputs": [],
      "name": "withdraw",
      "outputs": [],
      "stateMutability": "nonpayable",
      "type": "function"
    },
    {
      "inputs": [],
      "name": "wl2SalePrice",
      "outputs": [
        {
          "internalType": "uint256",
          "name": "",
          "type": "uint256"
        }
      ],
      "stateMutability": "view",
      "type": "function"
    },
    {
      "inputs": [],
      "name": "wl3SalePrice",
      "outputs": [
        {
          "internalType": "uint256",
          "name": "",
          "type": "uint256"
        }
      ],
      "stateMutability": "view",
      "type": "function"
    }
  ],
  "bytecode": "0x6509184e72a000600a819055600b55650da475abf000600c556103a06040526364027bf060e0908152636403cd70610100526364051ef06101205263640670706101405263642c9de06101605263642def606101805263642f40e06101a0526364542ae06101c0526364557c606101e052636456cde06102005263647d09606102205263647e5ae06102405263647fac60610260526364a49660610280526364a5e7e06102a0526364a739606102c0526364cd74e06102e0526364cec660610300526364d017e0610320526364f65360610340526364f7a4e0610360526364f8f66061038052620000f590601990601662000270565b503480156200010357600080fd5b5060405162003bb838038062003bb88339810160408190526200012691620002f5565b6040518060400160405280600d81526020016c41727468656f7320597573686160981b815250604051806040016040528060038152602001620b2a6960eb1b815250610457600762000187620001816200021c60201b60201c565b62000220565b600162000195858262000478565b506002620001a4848262000478565b50620001b181836200055a565b60805260a081905260c082905260015b818111620001ef57600081815260046020526040902083905580620001e6816200057a565b915050620001c1565b505050600f869055505060108390556011829055600d62000211828262000478565b505050505062000596565b3390565b600080546001600160a01b038381166001600160a01b0319831681178455604051919092169283917f8be0079c531659141344cd1fd0a4f28419497f9722a3daafe3b4186f6b6457e09190a35050565b828054828255906000526020600020908101928215620002b6579160200282015b82811115620002b6578251829063ffffffff1690559160200191906001019062000291565b50620002c4929150620002c8565b5090565b5b80821115620002c45760008155600101620002c9565b634e487b7160e01b600052604160045260246000fd5b600080600080608085870312156200030c57600080fd5b8451602080870151604088015160608901519397509095509350906001600160401b03808211156200033d57600080fd5b818801915088601f8301126200035257600080fd5b815181811115620003675762000367620002df565b604051601f8201601f19908116603f01168101908382118183101715620003925762000392620002df565b816040528281528b86848701011115620003ab57600080fd5b600093505b82841015620003cf5784840186015181850187015292850192620003b0565b600086848301015280965050505050505092959194509250565b600181811c90821680620003fe57607f821691505b6020821081036200041f57634e487b7160e01b600052602260045260246000fd5b50919050565b601f8211156200047357600081815260208120601f850160051c810160208610156200044e5750805b601f850160051c820191505b818110156200046f578281556001016200045a565b5050505b505050565b81516001600160401b03811115620004945762000494620002df565b620004ac81620004a58454620003e9565b8462000425565b602080601f831160018114620004e45760008415620004cb5750858301515b600019600386901b1c1916600185901b1785556200046f565b600085815260208120601f198616915b828110156200051557888601518255948401946001909101908401620004f4565b5085821015620005345787850151600019600388901b60f8161c191681555b5050505050600190811b01905550565b634e487b7160e01b600052601160045260246000fd5b808202811582820484141762000574576200057462000544565b92915050565b6000600182016200058f576200058f62000544565b5060010190565b60805160a05160c0516135eb620005cd60003960006114ff01526000610a3d0152600081816106aa0152610a9601526135eb6000f3fe60806040526004361061025c5760003560e01c8063791a251911610144578063b88d4fde116100b6578063e64710e61161007a578063e64710e6146106ce578063e985e9c5146106e4578063f2fde38b14610704578063f778970314610724578063f89aafce14610744578063f8dcbddb1461075a57600080fd5b8063b88d4fde1461061e578063c87b56dd1461063e578063ca34adf01461065e578063cbccefb214610674578063d5abeb011461069b57600080fd5b806398ae99a81161010857806398ae99a8146105865780639b6860c8146105995780639d1e5742146105af578063a22cb465146105cf578063af5f233a146105ef578063b187bd261461060457600080fd5b8063791a2519146104f35780637c382d0b146105135780638da5cb5b14610533578063930989751461055157806395d89b411461057157600080fd5b806342842e0e116101dd5780636908626a116101a15780636908626a146104535780636c0360eb1461047357806370a0823114610488578063715018a6146104a857806373025b20146104bd578063784de69c146104d357600080fd5b806342842e0e146103c057806355f804b3146103e0578063598d00a9146104005780635d5c0709146104205780636352211e1461043357600080fd5b806316c38b3c1161022457806316c38b3c1461033257806318160ddd1461035257806323b872dd146103755780632bac84b5146103955780633ccfd60b146103ab57600080fd5b806301ffc9a71461026157806306fdde0314610296578063081812fc146102b8578063095ea7b3146102f057806310c058f814610312575b600080fd5b34801561026d57600080fd5b5061028161027c366004612d88565b61077a565b60405190151581526020015b60405180910390f35b3480156102a257600080fd5b506102ab6107cc565b60405161028d9190612df5565b3480156102c457600080fd5b506102d86102d3366004612e08565b61085e565b6040516001600160a01b03909116815260200161028d565b3480156102fc57600080fd5b5061031061030b366004612e3d565b6108f8565b005b34801561031e57600080fd5b5061031061032d366004612e08565b610a0d565b34801561033e57600080fd5b5061031061034d366004612e77565b610a1a565b34801561035e57600080fd5b50610367610a35565b60405190815260200161028d565b34801561038157600080fd5b50610310610390366004612e92565b610ac0565b3480156103a157600080fd5b50610367600b5481565b3480156103b757600080fd5b50610310610af1565b3480156103cc57600080fd5b506103106103db366004612e92565b610b2b565b3480156103ec57600080fd5b506103106103fb366004612f5a565b610b46565b34801561040c57600080fd5b5061031061041b366004612fa3565b610b5a565b61031061042e366004612fd6565b610c2c565b34801561043f57600080fd5b506102d861044e366004612e08565b611473565b34801561045f57600080fd5b5061036761046e366004612e08565b6114ea565b34801561047f57600080fd5b506102ab611523565b34801561049457600080fd5b506103676104a336600461305b565b6115b1565b3480156104b457600080fd5b50610310611638565b3480156104c957600080fd5b5061036760115481565b3480156104df57600080fd5b506103676104ee366004612e08565b61164c565b3480156104ff57600080fd5b5061031061050e366004612e08565b61166d565b34801561051f57600080fd5b5061031061052e366004613076565b61167a565b34801561053f57600080fd5b506000546001600160a01b03166102d8565b34801561055d57600080fd5b5061031061056c366004613076565b6116f8565b34801561057d57600080fd5b506102ab611724565b610310610594366004613076565b611733565b3480156105a557600080fd5b50610367600c5481565b3480156105bb57600080fd5b506103106105ca366004612e08565b611a5d565b3480156105db57600080fd5b506103106105ea366004613098565b611b06565b3480156105fb57600080fd5b50610310611b11565b34801561061057600080fd5b506018546102819060ff1681565b34801561062a57600080fd5b506103106106393660046130cb565b611bee565b34801561064a57600080fd5b506102ab610659366004612e08565b611c26565b34801561066a57600080fd5b5061036760105481565b34801561068057600080fd5b5060095461068e9060ff1681565b60405161028d919061315d565b3480156106a757600080fd5b507f0000000000000000000000000000000000000000000000000000000000000000610367565b3480156106da57600080fd5b50610367600f5481565b3480156106f057600080fd5b506102816106ff366004613185565b611cbf565b34801561071057600080fd5b5061031061071f36600461305b565b611ced565b34801561073057600080fd5b5061031061073f366004612e08565b611d66565b34801561075057600080fd5b50610367600a5481565b34801561076657600080fd5b50610310610775366004612e08565b611d73565b60006001600160e01b031982166380ac58cd60e01b14806107ab57506001600160e01b03198216635b5e139f60e01b145b806107c657506301ffc9a760e01b6001600160e01b03198316145b92915050565b6060600180546107db906131af565b80601f0160208091040260200160405190810160405280929190818152602001828054610807906131af565b80156108545780601f1061082957610100808354040283529160200191610854565b820191906000526020600020905b81548152906001019060200180831161083757829003601f168201915b5050505050905090565b6000818152600560205260408120546001600160a01b03166108dc5760405162461bcd60e51b815260206004820152602c60248201527f4552433732313a20617070726f76656420717565727920666f72206e6f6e657860448201526b34b9ba32b73a103a37b5b2b760a11b60648201526084015b60405180910390fd5b506000908152600760205260409020546001600160a01b031690565b600061090382611473565b9050806001600160a01b0316836001600160a01b0316036109705760405162461bcd60e51b815260206004820152602160248201527f4552433732313a20617070726f76616c20746f2063757272656e74206f776e656044820152603960f91b60648201526084016108d3565b336001600160a01b038216148061098c575061098c8133611cbf565b6109fe5760405162461bcd60e51b815260206004820152603860248201527f4552433732313a20617070726f76652063616c6c6572206973206e6f74206f7760448201527f6e6572206e6f7220617070726f76656420666f7220616c6c000000000000000060648201526084016108d3565b610a088383611db1565b505050565b610a15611e1f565b600b55565b610a22611e1f565b6018805460ff1916911515919091179055565b60008060015b7f00000000000000000000000000000000000000000000000000000000000000008111610a8f57600081815260046020526040902054610a7b90836131ff565b915080610a8781613212565b915050610a3b565b50610aba817f000000000000000000000000000000000000000000000000000000000000000061322b565b91505090565b610aca3382611e79565b610ae65760405162461bcd60e51b81526004016108d39061323e565b610a08838383611f50565b610af9611e1f565b604051339081904780156108fc02916000818181858888f19350505050158015610b27573d6000803e3d6000fd5b5050565b610a0883838360405180602001604052806000815250611bee565b610b4e611e1f565b600d610b2782826132dd565b610b62611e1f565b600460095460ff166017811115610b7b57610b7b613147565b11610bc85760405162461bcd60e51b815260206004820152601d60248201527f4769667420697320616674657220746865207075626c69632073616c6500000060448201526064016108d3565b611e6182610bd4610a35565b610bde91906131ff565b1115610c215760405162461bcd60e51b815260206004820152601260248201527152656163686564206d617820737570706c7960701b60448201526064016108d3565b610a088383836120ec565b323314610c7b5760405162461bcd60e51b815260206004820152601e60248201527f5468652063616c6c657220697320616e6f7468657220636f6e7472616374000060448201526064016108d3565b60185460ff1615610cc35760405162461bcd60e51b815260206004820152601260248201527110dbdb9d1c9858dd081a5cc81c185d5cd95960721b60448201526064016108d3565b601760095460ff166017811115610cdc57610cdc613147565b03610cf95760405162461bcd60e51b81526004016108d39061339d565b610d016122ee565b600160095460ff166017811115610d1a57610d1a613147565b1480610d3c5750600260095460ff166017811115610d3a57610d3a613147565b145b80610d5d5750600360095460ff166017811115610d5b57610d5b613147565b145b80610d7e5750600560095460ff166017811115610d7c57610d7c613147565b145b80610d9f5750600660095460ff166017811115610d9d57610d9d613147565b145b80610dc05750600860095460ff166017811115610dbe57610dbe613147565b145b80610de057506009805460ff166017811115610dde57610dde613147565b145b80610e015750600b60095460ff166017811115610dff57610dff613147565b145b80610e225750600c60095460ff166017811115610e2057610e20613147565b145b80610e435750600e60095460ff166017811115610e4157610e41613147565b145b80610e645750600f60095460ff166017811115610e6257610e62613147565b145b80610e855750601160095460ff166017811115610e8357610e83613147565b145b80610ea65750601260095460ff166017811115610ea457610ea4613147565b145b80610ec75750601460095460ff166017811115610ec557610ec5613147565b145b80610ee85750601560095460ff166017811115610ee657610ee6613147565b145b610f405760405162461bcd60e51b8152602060048201526024808201527f43757272656e742073746570206973206e6f7420612077686974656c6973742060448201526373616c6560e01b60648201526084016108d3565b6000818152600e602052604090205461045790610f5e9086906131ff565b1115610fa25760405162461bcd60e51b815260206004820152601360248201527213585e081cdd5c1c1b1e48195e18d959591959606a1b60448201526064016108d3565b6000600160095460ff166017811115610fbd57610fbd613147565b03610fca575060006110bd565b600260095460ff166017811115610fe357610fe3613147565b14806110055750600560095460ff16601781111561100357611003613147565b145b806110265750600860095460ff16601781111561102457611024613147565b145b806110475750600b60095460ff16601781111561104557611045613147565b145b806110685750600e60095460ff16601781111561106657611066613147565b145b806110895750601160095460ff16601781111561108757611087613147565b145b806110aa5750601460095460ff1660178111156110a8576110a8613147565b145b156110b85750600a546110bd565b50600b545b6110c785826133ee565b34101561110a5760405162461bcd60e51b81526020600482015260116024820152704e6f7420656e6f756768742066756e647360781b60448201526064016108d3565b600060126015600160095460ff16601781111561112957611129613147565b03611137576001925061131c565b600260095460ff16601781111561115057611150613147565b14806111725750600560095460ff16601781111561117057611170613147565b145b806111935750600860095460ff16601781111561119157611191613147565b145b806111b45750600b60095460ff1660178111156111b2576111b2613147565b145b806111d55750600e60095460ff1660178111156111d3576111d3613147565b145b806111f65750601160095460ff1660178111156111f4576111f4613147565b145b806112175750601460095460ff16601781111561121557611215613147565b145b1561122c57506001915060139050601661131c565b600360095460ff16601781111561124557611245613147565b14806112675750600660095460ff16601781111561126557611265613147565b145b8061128757506009805460ff16601781111561128557611285613147565b145b806112a85750600c60095460ff1660178111156112a6576112a6613147565b145b806112c95750600f60095460ff1660178111156112c7576112c7613147565b145b806112ea5750601260095460ff1660178111156112e8576112e8613147565b145b8061130b5750601560095460ff16601781111561130957611309613147565b145b1561131c5750600591506014905060175b6113273388886123b9565b6113655760405162461bcd60e51b815260206004820152600f60248201526e139bdd081dda1a5d195b1a5cdd1959608a1b60448201526064016108d3565b336000908152602083905260409020548390611382908a906131ff565b11156113e55760405162461bcd60e51b815260206004820152602c60248201527f596f752063616e206f6e6c79206765742031204e4654206f6e2074686520576860448201526b6974656c6973742053616c6560a01b60648201526084016108d3565b6113ef338261268c565b6114165780546001810182556000828152602090200180546001600160a01b031916331790555b33600090815260208390526040812080548a92906114359084906131ff565b90915550506000858152600e6020526040812080548a92906114589084906131ff565b9091555061146990503389876120ec565b5050505050505050565b6000818152600560205260408120546001600160a01b0316806107c65760405162461bcd60e51b815260206004820152602960248201527f4552433732313a206f776e657220717565727920666f72206e6f6e657869737460448201526832b73a103a37b5b2b760b91b60648201526084016108d3565b6000818152600460205260408120546107c6907f000000000000000000000000000000000000000000000000000000000000000061322b565b600d8054611530906131af565b80601f016020809104026020016040519081016040528092919081815260200182805461155c906131af565b80156115a95780601f1061157e576101008083540402835291602001916115a9565b820191906000526020600020905b81548152906001019060200180831161158c57829003601f168201915b505050505081565b60006001600160a01b03821661161c5760405162461bcd60e51b815260206004820152602a60248201527f4552433732313a2062616c616e636520717565727920666f7220746865207a65604482015269726f206164647265737360b01b60648201526084016108d3565b506001600160a01b031660009081526006602052604090205490565b611640611e1f565b61164a60006126eb565b565b6019818154811061165c57600080fd5b600091825260209091200154905081565b611675611e1f565b600c55565b611682611e1f565b600081600281111561169657611696613147565b905060008160028111156116ac576116ac613147565b036116b8575050600f55565b60018160028111156116cc576116cc613147565b036116d8575050601055565b60028160028111156116ec576116ec613147565b03610a08575050601155565b611700611e1f565b806019838154811061171457611714613405565b6000918252602090912001555050565b6060600280546107db906131af565b3233146117825760405162461bcd60e51b815260206004820152601e60248201527f5468652063616c6c657220697320616e6f7468657220636f6e7472616374000060448201526064016108d3565b60185460ff16156117ca5760405162461bcd60e51b815260206004820152601260248201527110dbdb9d1c9858dd081a5cc81c185d5cd95960721b60448201526064016108d3565b601760095460ff1660178111156117e3576117e3613147565b036118005760405162461bcd60e51b81526004016108d39061339d565b6118086122ee565b600460095460ff16601781111561182157611821613147565b14806118435750600760095460ff16601781111561184157611841613147565b145b806118645750600a60095460ff16601781111561186257611862613147565b145b806118855750600d60095460ff16601781111561188357611883613147565b145b806118a65750601060095460ff1660178111156118a4576118a4613147565b145b806118c75750601360095460ff1660178111156118c5576118c5613147565b145b806118e85750601660095460ff1660178111156118e6576118e6613147565b145b61193e5760405162461bcd60e51b815260206004820152602160248201527f43757272656e742073746570206973206e6f742061207075626c69632073616c6044820152606560f81b60648201526084016108d3565b6000818152600e60205260409020546104579061195c9084906131ff565b11156119a05760405162461bcd60e51b815260206004820152601360248201527213585e081cdd5c1c1b1e48195e18d959591959606a1b60448201526064016108d3565b600c5460008190036119e15760405162461bcd60e51b815260206004820152600a6024820152690507269636520697320360b41b60448201526064016108d3565b6119eb83826133ee565b341015611a2e5760405162461bcd60e51b81526020600482015260116024820152704e6f7420656e6f756768742066756e647360781b60448201526064016108d3565b6000828152600e602052604081208054859290611a4c9084906131ff565b90915550610a0890503384846120ec565b611a65611e1f565b6000601560126001849003611a7e576015549250611aa8565b83600203611a955750506016805491506013611aa8565b83600303611aa857505060178054915060145b60005b83811015611aff57816000848381548110611ac857611ac8613405565b60009182526020808320909101546001600160a01b0316835282019290925260400181205580611af781613212565b915050611aab565b5050505050565b610b2733838361273b565b611b19611e1f565b600060118190555b601654811015611b79576013600060168381548110611b4257611b42613405565b60009182526020808320909101546001600160a01b0316835282019290925260400181205580611b7181613212565b915050611b21565b5060005b601754811015611bd5576014600060178381548110611b9e57611b9e613405565b60009182526020808320909101546001600160a01b0316835282019290925260400181205580611bcd81613212565b915050611b7d565b50611be260166000612d40565b61164a60176000612d40565b611bf83383611e79565b611c145760405162461bcd60e51b81526004016108d39061323e565b611c2084848484612809565b50505050565b6000818152600560205260409020546060906001600160a01b0316611c8d5760405162461bcd60e51b815260206004820152601f60248201527f55524920717565727920666f72206e6f6e6578697374656e7420746f6b656e0060448201526064016108d3565b600d611c988361283c565b604051602001611ca992919061341b565b6040516020818303038152906040529050919050565b6001600160a01b03918216600090815260086020908152604080832093909416825291909152205460ff1690565b611cf5611e1f565b6001600160a01b038116611d5a5760405162461bcd60e51b815260206004820152602660248201527f4f776e61626c653a206e6577206f776e657220697320746865207a65726f206160448201526564647265737360d01b60648201526084016108d3565b611d63816126eb565b50565b611d6e611e1f565b600a55565b611d7b611e1f565b806017811115611d8d57611d8d613147565b6009805460ff19166001836017811115611da957611da9613147565b021790555050565b600081815260076020526040902080546001600160a01b0319166001600160a01b0384169081179091558190611de682611473565b6001600160a01b03167f8c5be1e5ebec7d5bd14f71427d1e84f3dd0314c0f7b2291e5b200ac8c7c3b92560405160405180910390a45050565b6000546001600160a01b0316331461164a5760405162461bcd60e51b815260206004820181905260248201527f4f776e61626c653a2063616c6c6572206973206e6f7420746865206f776e657260448201526064016108d3565b6000818152600560205260408120546001600160a01b0316611ef25760405162461bcd60e51b815260206004820152602c60248201527f4552433732313a206f70657261746f7220717565727920666f72206e6f6e657860448201526b34b9ba32b73a103a37b5b2b760a11b60648201526084016108d3565b6000611efd83611473565b9050806001600160a01b0316846001600160a01b03161480611f385750836001600160a01b0316611f2d8461085e565b6001600160a01b0316145b80611f485750611f488185611cbf565b949350505050565b826001600160a01b0316611f6382611473565b6001600160a01b031614611fc75760405162461bcd60e51b815260206004820152602560248201527f4552433732313a207472616e736665722066726f6d20696e636f72726563742060448201526437bbb732b960d91b60648201526084016108d3565b6001600160a01b0382166120295760405162461bcd60e51b8152602060048201526024808201527f4552433732313a207472616e7366657220746f20746865207a65726f206164646044820152637265737360e01b60648201526084016108d3565b612034600082611db1565b6001600160a01b038316600090815260066020526040812080546001929061205d90849061322b565b90915550506001600160a01b038216600090815260066020526040812080546001929061208b9084906131ff565b909155505060008181526005602052604080822080546001600160a01b0319166001600160a01b0386811691821790925591518493918716917fddf252ad1be2c89b69c2b068fc378daa952ba7f163c4a11628f55a4df523b3ef91a4505050565b3332146121335760405162461bcd60e51b815260206004820152601560248201527410dbdb9d1c9858dd1cc818d85b9b9bdd081b5a5b9d605a1b60448201526064016108d3565b6001600160a01b0383166121895760405162461bcd60e51b815260206004820181905260248201527f4552433732313a206d696e7420746f20746865207a65726f206164647265737360448201526064016108d3565b600082116121ea5760405162461bcd60e51b815260206004820152602860248201527f455243373231723a206e65656420746f206d696e74206174206c65617374206f6044820152673732903a37b5b2b760c11b60648201526084016108d3565b60008181526004602052604090205482111561225c5760405162461bcd60e51b815260206004820152602b60248201527f455243373231723a206d696e74696e67206d6f726520746f6b656e732074686160448201526a6e20617661696c61626c6560a81b60648201526084016108d3565b600081815260046020526040812054905b838110156122ab5760006122828684866128cf565b905061228e8682612963565b612297836134b2565b925050806122a490613212565b905061226d565b5060008281526004602090815260408083208490556001600160a01b03871683526006909152812080548592906122e39084906131ff565b909155505050505050565b601760095460ff16601781111561230757612307613147565b1061230e57565b425b60095460199060ff16601781111561232a5761232a613147565b67ffffffffffffffff168154811061234457612344613405565b9060005260206000200154811115611d635760095460ff16601781111561236d5761236d613147565b6123789060016134c9565b67ffffffffffffffff16601781111561239357612393613147565b6009805460ff191660018360178111156123af576123af613147565b0217905550612310565b6000600160095460ff1660178111156123d4576123d4613147565b03612428576124216123e5856129bc565b600f548585808060200260200160405190810160405280939291908181526020018383602002808284376000920191909152506129fb92505050565b9050612685565b600260095460ff16601781111561244157612441613147565b14806124635750600560095460ff16601781111561246157612461613147565b145b806124845750600860095460ff16601781111561248257612482613147565b145b806124a55750600b60095460ff1660178111156124a3576124a3613147565b145b806124c65750600e60095460ff1660178111156124c4576124c4613147565b145b806124e75750601160095460ff1660178111156124e5576124e5613147565b145b806125085750601460095460ff16601781111561250657612506613147565b145b1561255557612421612519856129bc565b6010548585808060200260200160405190810160405280939291908181526020018383602002808284376000920191909152506129fb92505050565b600360095460ff16601781111561256e5761256e613147565b14806125905750600660095460ff16601781111561258e5761258e613147565b145b806125b057506009805460ff1660178111156125ae576125ae613147565b145b806125d15750600c60095460ff1660178111156125cf576125cf613147565b145b806125f25750600f60095460ff1660178111156125f0576125f0613147565b145b806126135750601260095460ff16601781111561261157612611613147565b145b806126345750601560095460ff16601781111561263257612632613147565b145b1561268157612421612645856129bc565b6011548585808060200260200160405190810160405280939291908181526020018383602002808284376000920191909152506129fb92505050565b5060005b9392505050565b6000805b825481101561268157836001600160a01b03168382815481106126b5576126b5613405565b6000918252602090912001546001600160a01b0316036126d95760019150506107c6565b806126e381613212565b915050612690565b600080546001600160a01b038381166001600160a01b0319831681178455604051919092169283917f8be0079c531659141344cd1fd0a4f28419497f9722a3daafe3b4186f6b6457e09190a35050565b816001600160a01b0316836001600160a01b03160361279c5760405162461bcd60e51b815260206004820152601960248201527f4552433732313a20617070726f766520746f2063616c6c65720000000000000060448201526064016108d3565b6001600160a01b03838116600081815260086020908152604080832094871680845294825291829020805460ff191686151590811790915591519182527f17307eab39ab6107e8899845ad3d59bd9653f200f220920489ca2b5937696c31910160405180910390a3505050565b612814848484611f50565b61282084848484612a08565b611c205760405162461bcd60e51b81526004016108d3906134f1565b6060600061284983612b09565b600101905060008167ffffffffffffffff81111561286957612869612ece565b6040519080825280601f01601f191660200182016040528015612893576020820181803683370190505b5090508181016020015b600019016f181899199a1a9b1b9c1cb0b131b232b360811b600a86061a8153600a850494508461289d57509392505050565b600080843a4342446128e260018461322b565b604080516001600160a01b0390971660208801528601949094526060850192909252608084015260a08301524060c08201523060e082015261010081018590526101200160408051601f1981840301815291905280516020909101209050600061294c8583613543565b9050612959818686612be1565b9695505050505050565b60008181526005602052604080822080546001600160a01b0319166001600160a01b03861690811790915590518392907fddf252ad1be2c89b69c2b068fc378daa952ba7f163c4a11628f55a4df523b3ef908290a45050565b6040516bffffffffffffffffffffffff19606083901b166020820152600090603401604051602081830303815290604052805190602001209050919050565b6000611f48828486612cb1565b60006001600160a01b0384163b15612afe57604051630a85bd0160e11b81526001600160a01b0385169063150b7a0290612a4c903390899088908890600401613565565b6020604051808303816000875af1925050508015612a87575060408051601f3d908101601f19168201909252612a8491810190613598565b60015b612ae4573d808015612ab5576040519150601f19603f3d011682016040523d82523d6000602084013e612aba565b606091505b508051600003612adc5760405162461bcd60e51b81526004016108d3906134f1565b805181602001fd5b6001600160e01b031916630a85bd0160e11b149050611f48565b506001949350505050565b60008072184f03e93ff9f4daa797ed6e38ed64bf6a1f0160401b8310612b485772184f03e93ff9f4daa797ed6e38ed64bf6a1f0160401b830492506040015b6d04ee2d6d415b85acef81000000008310612b74576d04ee2d6d415b85acef8100000000830492506020015b662386f26fc100008310612b9257662386f26fc10000830492506010015b6305f5e1008310612baa576305f5e100830492506008015b6127108310612bbe57612710830492506004015b60648310612bd0576064830492506002015b600a83106107c65760010192915050565b600081815260036020908152604080832086845290915281205481818103612c0a575084612c0d565b50805b6000612c1a60018761322b565b6000868152600360209081526040808320848452909152902054909150878214612c845780600003612c675760008681526003602090815260408083208b84529091529020829055612c84565b60008681526003602090815260408083208b845290915290208190555b8015612ca55760008681526003602090815260408083208584529091528120555b50909695505050505050565b600082612cbe8584612cc7565b14949350505050565b600081815b8451811015612d0c57612cf882868381518110612ceb57612ceb613405565b6020026020010151612d14565b915080612d0481613212565b915050612ccc565b509392505050565b6000818310612d30576000828152602084905260409020612685565b5060009182526020526040902090565b5080546000825590600052602060002090810190611d6391905b80821115612d6e5760008155600101612d5a565b5090565b6001600160e01b031981168114611d6357600080fd5b600060208284031215612d9a57600080fd5b813561268581612d72565b60005b83811015612dc0578181015183820152602001612da8565b50506000910152565b60008151808452612de1816020860160208601612da5565b601f01601f19169290920160200192915050565b6020815260006126856020830184612dc9565b600060208284031215612e1a57600080fd5b5035919050565b80356001600160a01b0381168114612e3857600080fd5b919050565b60008060408385031215612e5057600080fd5b612e5983612e21565b946020939093013593505050565b80358015158114612e3857600080fd5b600060208284031215612e8957600080fd5b61268582612e67565b600080600060608486031215612ea757600080fd5b612eb084612e21565b9250612ebe60208501612e21565b9150604084013590509250925092565b634e487b7160e01b600052604160045260246000fd5b600067ffffffffffffffff80841115612eff57612eff612ece565b604051601f8501601f19908116603f01168101908282118183101715612f2757612f27612ece565b81604052809350858152868686011115612f4057600080fd5b858560208301376000602087830101525050509392505050565b600060208284031215612f6c57600080fd5b813567ffffffffffffffff811115612f8357600080fd5b8201601f81018413612f9457600080fd5b611f4884823560208401612ee4565b600080600060608486031215612fb857600080fd5b612fc184612e21565b95602085013595506040909401359392505050565b60008060008060608587031215612fec57600080fd5b84359350602085013567ffffffffffffffff8082111561300b57600080fd5b818701915087601f83011261301f57600080fd5b81358181111561302e57600080fd5b8860208260051b850101111561304357600080fd5b95986020929092019750949560400135945092505050565b60006020828403121561306d57600080fd5b61268582612e21565b6000806040838503121561308957600080fd5b50508035926020909101359150565b600080604083850312156130ab57600080fd5b6130b483612e21565b91506130c260208401612e67565b90509250929050565b600080600080608085870312156130e157600080fd5b6130ea85612e21565b93506130f860208601612e21565b925060408501359150606085013567ffffffffffffffff81111561311b57600080fd5b8501601f8101871361312c57600080fd5b61313b87823560208401612ee4565b91505092959194509250565b634e487b7160e01b600052602160045260246000fd5b602081016018831061317f57634e487b7160e01b600052602160045260246000fd5b91905290565b6000806040838503121561319857600080fd5b6131a183612e21565b91506130c260208401612e21565b600181811c908216806131c357607f821691505b6020821081036131e357634e487b7160e01b600052602260045260246000fd5b50919050565b634e487b7160e01b600052601160045260246000fd5b808201808211156107c6576107c66131e9565b600060018201613224576132246131e9565b5060010190565b818103818111156107c6576107c66131e9565b60208082526031908201527f4552433732313a207472616e736665722063616c6c6572206973206e6f74206f6040820152701ddb995c881b9bdc88185c1c1c9bdd9959607a1b606082015260800190565b601f821115610a0857600081815260208120601f850160051c810160208610156132b65750805b601f850160051c820191505b818110156132d5578281556001016132c2565b505050505050565b815167ffffffffffffffff8111156132f7576132f7612ece565b61330b8161330584546131af565b8461328f565b602080601f83116001811461334057600084156133285750858301515b600019600386901b1c1916600185901b1785556132d5565b600085815260208120601f198616915b8281101561336f57888601518255948401946001909101908401613350565b508582101561338d5787850151600019600388901b60f8161c191681555b5050505050600190811b01905550565b60208082526031908201527f5468697320636f6c6c656374696f6e20697320736f6c64206f75742e2043686560408201527031b59034ba1037b71027b832b739b2b09760791b606082015260800190565b80820281158282048414176107c6576107c66131e9565b634e487b7160e01b600052603260045260246000fd5b6000808454613429816131af565b60018281168015613441576001811461345657613485565b60ff1984168752821515830287019450613485565b8860005260208060002060005b8581101561347c5781548a820152908401908201613463565b50505082870194505b505050508351613499818360208801612da5565b64173539b7b760d91b9101908152600501949350505050565b6000816134c1576134c16131e9565b506000190190565b67ffffffffffffffff8181168382160190808211156134ea576134ea6131e9565b5092915050565b60208082526032908201527f4552433732313a207472616e7366657220746f206e6f6e20455243373231526560408201527131b2b4bb32b91034b6b83632b6b2b73a32b960711b606082015260800190565b60008261356057634e487b7160e01b600052601260045260246000fd5b500690565b6001600160a01b038581168252841660208201526040810183905260806060820181905260009061295990830184612dc9565b6000602082840312156135aa57600080fd5b815161268581612d7256fea26469706673582212207647f283a39d17c0fda21082b1c3018ad02916077da717c0d769c1f2528f500564736f6c63430008110033",
  "linkReferences": {},
  "deployedLinkReferences": {}
}